:020000040800F2
:1000000030FA012051030008ED7A0008F9360008A3
:10001000E97A0008E71600084DA200080000000079
:10002000000000000000000000000000990200082D
:10003000B91F000800000000ED020008B1880008A8
:100040006B0300086B0300086B0300086B030008D8
:100050006B0300086B0300086B0300086B030008C8
:100060006B0300086B0300086B0300086B030008B8
:100070006B0300086B0300086B0300086B030008A8
:100080006B0300086B0300086B0300086B03000898
:100090006B0300086B0300086B0300086B03000888
:1000A0006B0300086B0300086B0300086B03000878
:1000B0006B030008298900086B0300086B03000824
:1000C0006B0300086B0300086B0300086B03000858
:1000D0006B030008C19C0008499D0008959D00081D
:1000E0006B0300086B0300086B0300086B03000838
:1000F0006B0300086B0300086B0300086B03000828
:100100006B0300086B0300086B0300086B03000817
:100110006B0300086B0300086B0300085989000893
:100120006B0300086B0300086B0300086B030008F7
:100130006B0300086B0300086B0300086B030008E7
:100140006B0300086B0300086B0300086B030008D7
:100150006B0300086B0300086B0300086B030008C7
:100160006B0300086B0300086B0300086B030008B7
:100170006B0300086B0300086B0300086B030008A7
:100180006B0300086B03000800F002F800F074F83D
:100190000AA090E8000C82448344AAF10107DA45E2
:1001A00001D100F069F8AFF2090EBAE80F0013F0C0
:1001B000010F18BFFB1A43F001031847F0140500A4
:1001C000101505000A444FF0000C10F8013B13F025
:1001D000070408BF10F8014B1D1108BF10F8015BA0
:1001E000641E05D010F8016B641E01F8016BF9D193
:1001F00013F0080F1EBF10F8014BAD1C0C1B09D1EA
:100200006D1E58BF01F801CBFAD505E014F8016B5B
:1002100001F8016B6D1EF9D59142D6D370470000ED
:100220000023002400250026103A28BF78C1FBD8FF
:10023000520728BF30C148BF0B607047642900F0E7
:100240000B82782900F04482732900F09A860020FE
:1002500070471FB540F085F89DE8030000F0C0FD31
:1002600000F0F6FE0400002000213FF019FA401CC7
:1002700060601FBD10B510BD01F0DCF81146FFF73E
:10028000E8FF34F085F801F0FAF803B4FFF7F2FF65
:1002900003BC0CF037FE00002A4B19680868B0E870
:1002A000F04F80F30988BFF36F8F4FF0000080F3A9
:1002B000118870470000000006480068006880F35D
:1002C000088862B661B6BFF34F8FBFF36F8F00DF50
:1002D00000BF00BF08ED00E0DFF80C00016841F44A
:1002E00070010160704700BF88ED00E0EFF3098006
:1002F000BFF36F8F134B1A681EF0100F08BF20ED6D
:10030000108A20E9F04F106008B44FF0500080F3DD
:100310001188BFF34F8FBFF36F8F3DF0C7FF4FF0D2
:10032000000080F3118808BC19680868B0E8F04F35
:100330001EF0100F08BFB0EC108A80F30988BFF3DD
:100340006F8F7047E4000020EFF3058070470000D6
:100350000948804709480047FEE7FEE7FEE7FEE759
:10036000FEE7FEE7FEE7FEE7FEE7FEE70448054995
:10037000054A064B70470000C18800088901000843
:1003800030F0012030FA012030F6012030F6012053
:1003900070B5064600F008FD056806F10B0020F078
:1003A0000704B4429CBF002070BD2B466A68BAB1F6
:1003B0001068A04210D304F1080188423CBF506885
:1003C000586007D35168101941601168091B01601A
:1003D00058601460101D70BD13465268002AE7D1A2
:1003E0002146284600F0E8FC0028DED170BD70B53B
:1003F0000446051F00F0D8FC0068002C14BF4468B8
:1004000070BD002C18BFAC423CBF20466468F8D3D6
:1004100001680A18AA4218BF456003D12A68054638
:100420001144016028684119A1421CBF6C6070BD75
:100430006168696021680844286070BD53EA020C55
:1004400000F069802DE9F04B4FF00006002B1FBF34
:10045000B3FA83F503FA05F424FA05F65E4012BFF9
:100460001643B2FA82F502FA05F4C5F120051EBF63
:1004700022FA05FC44EA0C04203556EA044C4FEA03
:10048000144418BF641C4FF000084FF0000990425C
:1004900071EB030C39D3002919BFB1FA81F701FAC6
:1004A00007F6B0FA80F700FA07F6C7F120071EBF7B
:1004B00020FA07FC46EA0C062037B6FBF4FCA7EB53
:1004C0000507103F07F01F0BCBF120060CFA0BFBC2
:1004D0002CFA06F644BFB3460026202FA4BF5E4682
:1004E0004FF0000B5BEA060C08BF4FF0010B19EB55
:1004F0000B09ABFB027C48EB0608C01B06FB02CCD9
:100500000BFB03CC71EB0C01C1E70B4602464146E5
:100510004846BDE8F08B13B54FF000004FF00001E6
:10052000AFF30080BDE81C40704710B5044600F0F2
:1005300033FC0068005DC00602D504F1200010BD48
:10054000204610BD0FB4044910B503AA029800F06C
:100550001DFD10BC5DF814FBC80000200FB41CB5D5
:10056000074B06AA7B4469460090059800F0D7FC2B
:100570000020694600F0E6FC1CBC5DF814FB00009E
:10058000DD0900000FB41CB50C0007AA009001D0D3
:100590002044401E074B7B4469460190069800F0BA
:1005A000BEFC002C03D06946002000F0CBFC1CBC34
:1005B0005DF814FBB509000070B504468569006854
:1005C000C10601D5302600E02026C00707D070BD47
:1005D000D4E9012130469047206A401C20626D1EFC
:1005E000F6D570BD70B5044685690078C00707D19F
:1005F00070BDD4E9012120209047206A401C206270
:100600006D1EF6D570BD70B50C460546012A05D0A5
:100610002878800600D5EA69002302E0012305E07E
:100620005B1C934202D2E05C0028F9D1A869E6186D
:10063000C01AA861286A184428622846FFF7BCFF40
:1006400004E0D5E9012114F8010B9047B442F8D336
:100650002846FFF7C7FF70BD2DE9F041064600248C
:1006600010687529314616A510D0AFF30080002818
:1006700002DA404213A507E031688A0701D512A5C6
:1006800002E0490704D511A5012401E0AFF3008081
:1006900000210A2206F1240709E0B0FBF2FCB0FBBE
:1006A000F2F302FB1C00303078541846491C002835
:1006B000F3D123462A463046BDE8F04100F0D1BBD5
:1006C000000000002D0000002B00000020000000B2
:1006D00070B504460D4621461068AFF300802188AE
:1006E000090502D50F4A7A4402E00E4A7A440E32D6
:1006F000002104F1240305E000F00F060009965DD7
:100700005E54491C0028F7D120780023000704D547
:10071000702D02D009B1022311322046BDE870408D
:1007200000F09FBBD60805002DE9F05F894604461E
:100730004FF0000ADFF824B1FB44C0F820A02046A7
:10074000E168884700287DD0252806D0D4E901211A
:100750009047206A401C2062F1E700255F46204652
:10076000E16888472028064607DB312E05D2B819F4
:1007700010F8200C08B10543F1E7A80701D525F0D2
:100780000405C4F81CA00027C4F818A02A2E09D01C
:1007900030460AF0E7FC38B304EB8708303EC8F86F
:1007A000186019E059F8041B204604EB8702916198
:1007B000E1688847012F064618D1E069002820DA51
:1007C00025F020051DE0D8F8180000EB800006EBAE
:1007D00040003038C8F818002046E16888470646CF
:1007E0000AF0C0FC0028EED1012F0AD02E2E08D12D
:1007F0002046E16888477F1C0646022F45F0200509
:10080000C4DBA069002803DA404245F00105A0617D
:10081000E80701D025F01005A6B1A6F1410019287E
:1008200002D8203645F400654A4631462046256008
:100830004D46FFF703FD60B1012807D0ED1D25F0FF
:10084000070000E007E000F1080978E705F1040976
:1008500075E730467AE7206ABDE8F09FAC080500EE
:100860000FB400B58DB010A9099000910B904FF016
:10087000FF300A9000200C90064878440690064805
:1008800078446A4607900F9909A800F0A5FB0DB0BF
:100890005DF814FB7B070000930700002DE9FF5F64
:1008A0001D464FF0FF3B91464FF000085F46D5E9EB
:1008B0000146A96901987F1C8847296A82468847B2
:1008C0000028F6D1BAF1FF3F0CD0002E24F4C0640A
:1008D00019DD600614D5BAF12B0F09D0BAF12D0F2E
:1008E0000ED103E0584604B0BDE8F09F44F48064A4
:1008F000A96901987F1C8847761E8246002E02DD7A
:10090000BAF1300F03D0B9F1000F26D032E0A96957
:10091000761E01987F1C44F400748847002E82469E
:1009200005DDBAF1780F06D0BAF1580F03D0B9F14E
:10093000000F10D01EE0B9F1000F02D0B9F1100F76
:1009400018D1A969761E01987F1C24F40074884789
:100950008246102002E0082000E00A20814609E0DB
:10096000A96908FB0908761E01987F1C44F40074ED
:1009700088478246002E05DD4946504600F018FBA8
:100980000028EDDAE96901988847A00502D46FF0E4
:100990000100A8E7E00725D1600613D5600502D560
:1009A000C8F1000000E0404629680A1D2A60096875
:1009B000220501D5087015E0220701D5088011E055
:1009C00008600FE02868011D29600068210502D534
:1009D00080F8008006E0210702D5A0F8008001E041
:1009E000C0F8008038467EE730B505460B462A46FB
:1009F00013F8014B12F8010B08B1A042F8D01CB15A
:100A0000002802D06D1CF1E7284630BD40EA010302
:100A1000024630B59B0710D14FF0013400E008C208
:100A200008C91D1B9D4315EAC41FF8D013F0FF0130
:100A300002F8011B0DD01B0AF8E711F8013B002B4F
:100A400002F8013B05D011F8013B002B02F8013BF5
:100A5000F3D130BD10B5431C02E010F8011B71B199
:100A60008107FAD14FF0013202C88C1A8C4314EA84
:100A7000C211F9D0C01A0A0603D0C01E10BDC01A98
:100A800010BD0A0401D0801E10BD0902FCD0401E1A
:100A900010BD40EA010370B59B072ED14FF001361F
:100AA000042A2AD308C810C99D1B9D43121F15EAAA
:100AB000C61517D0D8B2E1B2401A50EA056110D17C
:100AC00098B2A1B2401A50EA05410AD123F07F4002
:100AD00024F07F41401A50EA052102D1180EA0EB04
:100AE000146070BDA342DBD018BA21BA884201D984
:100AF000012070BD4FF0FF3070BD0AB9002070BDFD
:100B000010F8013B11F8014B63B1A3420AD1521E08
:100B100008D010F8013B11F8014B1BB1A34201D1E1
:100B2000521EEDD1181B70BD032A40F2308010F028
:100B3000030C00F0158011F8013BBCF1020F624478
:100B400098BF11F801CB00F8013B38BF11F8013B09
:100B5000A2F1040298BF00F801CB38BF00F8013BB6
:100B600011F0030300F02580083AC0F0088051F826
:100B7000043B083A51F804CBA0E80810F5E7121D31
:100B80005CBF51F8043B40F8043BAFF30080D20750
:100B900024BF11F8013B11F801CB48BF11F8012B1C
:100BA00024BF00F8013B00F801CB48BF00F8012B3F
:100BB000704710B5203AC0F00B80B1E81850203AC9
:100BC000A0E81850B1E81850A0E81850BFF4F5AFED
:100BD0005FEA027C24BFB1E81850A0E8185044BF77
:100BE00018C918C0BDE810405FEA827C24BF51F8E4
:100BF000043B40F8043B08BF7047D20728BF31F8D8
:100C0000023B48BF11F8012B28BF20F8023B48BF28
:100C100000F8012B704702F0FF0343EA032242EA87
:100C2000024200F002B84FF000020429C0F0128026
:100C300010F0030C00F01B80CCF1040CBCF1020F8F
:100C400018BF00F8012BA8BF20F8022BA1EB0C0164
:100C500000F00DB85FEAC17C24BF00F8012B00F85A
:100C6000012B48BF00F8012B70474FF0000200B580
:100C7000134694469646203922BFA0E80C50A0E8BF
:100C80000C50B1F12001BFF4F7AF090728BFA0E86D
:100C90000C5048BF0CC05DF804EB890028BF40F839
:100CA000042B08BF704748BF20F8022B11F0804F7B
:100CB00018BF00F8012B704710B5044610F0030F61
:100CC00008BF11F0030F40F015804FF0013E121FD6
:100CD000C0F20E8051F8043BA3EB0E0C2CEA030C7F
:100CE0001CEACE1C08BF40F8043BF0D0A1F104017F
:100CF00002F10402521E08DB11F8013B002B00F840
:100D0000013BF7D11146FFF78EFF204610BD0000D2
:100D10004FF0013C50F8042B51F8043B9A4221D18A
:100D2000A2EB0C03934313EACC1317D150F8042B16
:100D300051F8043B9A4215D1A2EB0C03934313EAFA
:100D4000CC130BD150F8042B51F8043B9A4209D133
:100D5000A2EB0C03934313EACC13DBD04FF000005B
:100D6000704700BFD01A01BAB1FA81F101F0180141
:100D700022FA01F0CB40C1F12001DBB2C0B2C01AAF
:100D80002CFA01F3D11A914311EAC311E6D170474D
:100D9000704770477047000010B500F059F9001D0A
:100DA00010BD00BFFDE8030000487047D4EF0120EC
:100DB000704770477047704738B504460A460020B0
:100DC0006946AFF30080002808BF38BD024600998D
:100DD000204600F045F9012038BD012000F022BB7B
:100DE000F8B5AFF30080054600200C46102000BF88
:100DF0000646A819A0420DD9324669460020AFF335
:100E00000080070008BF00F00DFB0098A04218BF4B
:100E10000546C419FFF7C8FF05600746F01D20F01E
:100E200007004619284600F00AF8B44208BFF8BD8A
:100E3000A21B31463868BDE8F84000F011B9002126
:100E40000160C0E9011070471020704710B500F034
:100E500003F9006810BD10B5044600F0FDF8046009
:100E600010BD2DE9F0470D4699469246044600F123
:100E700024080168880604D5E06921F0100121608A
:100E800000E00120A84201DD471B00E00027A16926
:100E90007A1902EB0900081AA0612078C00602D472
:100EA0002046FFF789FB002608E0D4E901211AF863
:100EB00006009047206A401C761C20624E45F4DBF9
:100EC0002078C0060AD52046FFF776FB06E0D4E975
:100ED000012130209047206A401C2062381EA7F173
:100EE0000107F4DC07E0D4E9012118F80500904778
:100EF000206A401C2062281EA5F10105F3DC204673
:100F0000FFF770FB2078000602D50220BDE8F087CD
:100F10000120FBE701694A1C02610878704700B5AF
:100F20008FB0CDE901310021059105497944CDE922
:100F3000031011466846FFF7F7FB0FB000BD000035
:100F4000E5FFFFFF0A6802F8010B0A607047D1E96C
:100F500000239A4202D2531C0B601070704710B5E8
:100F6000436913B1AFF3008001E0FFF74CFB0120B0
:100F700010BD127800F124010A7000224A7001228B
:100F8000EDE711684FF0FF32E9E70000074B70B55D
:100F90000D467B44FFF7C3FF0446284600F03EFAA7
:100FA00010B14FF0FF3070BD204670BD3F8D010085
:100FB0003A2800D2303820F02002412A01D3A2F191
:100FC0003700884201D34FF0FF3070470268114468
:100FD0001378016018467047D16005497944516122
:100FE00004497944116200211161114600F05CB896
:100FF000EDFFFFFFAF000000426842B1016811F849
:10100000013B23B1521EC0E900121846704701216E
:10101000C160881E704742685AB1C368016843B90D
:1010200083688B4205D0491E521CC0E90012002083
:1010300070474FF0FF30704708B569468DF80000E3
:101040000320ABBE08BD000000487047CCEF012074
:1010500000487047ECEF012000487047CCEF0120BA
:10106000034640688C46002818BF88423CBF0346B0
:101070004068F8D318681844884207D00CF1030080
:1010800020F00700001D411A521A0146081D0A608F
:10109000FFF7ADB910B50446FFF77EFE0068005DAE
:1010A00000F0010010BD00002DE9F34F4FF0000AE1
:1010B0000C4656468DB001200C9001F10C000B90AF
:1010C00062690B9801219047051E2DD0252D2CD04B
:1010D000216A8847C0B162690B9801219047216A53
:1010E00088470028F7D16269411E0B98904700E0BD
:1010F000761CA1690D988847216A88470028F7D196
:10110000E1690D988847DBE7A1690D988847A842F7
:10111000074601D1761CD3E7E1690D9888477F1C0B
:1011200002D1BAF1000F6FD06CE162690B98002711
:101130003D46394690472A2804D162690B9801211F
:1011400090470125DFF8D08262690B980121904712
:10115000A0F130010A290AD24745E5DC07EB8701F7
:1011600000EB4107303FDFD445F01005ECE7E9061E
:1011700001D46FF000476C280AD04C2814D068289E
:1011800015D06A280DD074281CD07A281AD01DE0FA
:1011900062690B98012190476C2802D045F0040544
:1011A00014E045F002050DE045F020050AE0626913
:1011B0000B9801219047682802D045F0080505E00A
:1011C00045F4006562690B9801219047C4E9015715
:1011D00065283DD019DC58287AD00CDC452837D05A
:1011E00004DC252826D041289ED131E046282FD086
:1011F000472899D12CE05B2877D0612828D0632834
:101200007CD0642823D15AE0F7E06F2848D008DC6E
:1012100066281DD067281BD0692821D06E2816D1DA
:1012200027E0702845D0732868D0752847D07828E3
:101230000DD14DE0A1690D988847252805463FF45A
:1012400069AFE1690D9888476D1C3FF46AAFD9E03A
:101250000D9923466A466FF00100AFF30080C6E0A7
:1012600045F0400023464FF000026060A80736D4E6
:101270003EE0E8077FF447AF2068011D2160006869
:10128000290501D506701BE7290701D5068017E758
:10129000A90703D5F117C0E9006111E706600FE760
:1012A00045F0400023464FF008026060A80716D4BE
:1012B0001EE040F60E0125EA0100606016E045F0F0
:1012C000400023464FF00A026060A80707D40FE0F1
:1012D00045F040006060A80708D5234610220D990C
:1012E0006FF00100AFF3008081E007E01022234699
:1012F0000D996FF00100FFF7D1FA78E04FF0000987
:1013000063284F46C8464B46CB4602D05B2807D0E1
:1013100039E02079C00601D40120A060012732E025
:101320006269D4F80CB00B98012190475E2807D170
:101330004FF0010949466269D4F80CB00B98904708
:10134000216939B900210A4603AB43F82120491C21
:101350000829FADBD8B3216949B308F101086269A9
:101360000B98012190475D28F4D1B9F1000F09D005
:10137000002003A951F82020D24341F82020401C2E
:101380000828F7DB03AB2069002820794FEA40707A
:101390001ED05B462246CDF80080CDE901970D991D
:1013A00000286FF0010020DAAFF300801FE0C117C2
:1013B00003AA00EBD1614B1121F01F0102EB830264
:1013C000411A13680120884003431360C7E719E0FE
:1013D0000D99224600286FF00100009702DAAFF362
:1013E000008004E0AFF3008001E0AFF3008000284C
:1013F0000ADA401C06D10C9820B14FF0FF300FB034
:10140000BDE8F08F5046FAE7E90701D10AF1010A79
:10141000064400200C9053E6CCCCCC0C007B00F0B2
:101420008000704710B500F039F8BDE8104000F0BA
:101430002FB870477546FFF707FEAE4605006946B0
:10144000534620F00700854618B020B5FEF78EFF02
:10145000BDE820404FF000064FF000074FF00008B5
:101460004FF0000B21F00701AC46ACE8C009ACE836
:10147000C009ACE8C009ACE8C0098D46704710B59A
:101480000446AFF300802046BDE81040FEF7FDBEE5
:10149000002801D00BF036BD7047000010B50128C0
:1014A00005D0002103A000F021F8012010BD09A102
:1014B000F8E7000053494752544D454D3A204F75C7
:1014C00074206F662068656170206D656D6F72793C
:1014D000000000003A2048656170206D656D6F72F4
:1014E0007920636F727275707465640070B505461B
:1014F0000C460A2000E06D1CFFF79EFD35B12878F0
:101500000028F8D102E0641CFFF796FD14B12078A2
:101510000028F8D1BDE870400A20FFF78DBD00001B
:1015200010B512A0FFF70EF80DE04FF4C8700EF0E2
:1015300073FE14A0FFF706F84FF448700EF06CFE2F
:1015400015A0FEF7FFFF194806F01EFD0028ECD19C
:1015500017A0FEF7F7FF1A4806F030FE1949087089
:10156000194806F099FD1749087010BD0D0AD3EB14
:101570004153363038C4A3BFE9CED5CAD62E2E2E5D
:101580002E0D0A000D0ACEB4BCECB2E2B5BDC4A368
:10159000BFE92121210D0A000D0AB3A2CAD4C1ACB2
:1015A000BDD3C4A3BFE92E2E2E0D0A00A800002033
:1015B0000D0ACDA8D1B6B3C9B9A62121210D0A00C3
:1015C000AE000020AC0000206006002010B502F044
:1015D00019FA10BD2DE9F04107460C4600260025FA
:1015E00009E036023919491B491E88B200F008F893
:1015F0000644681CC5B2A542F3DB3046BDE8F08165
:1016000070B50446002602F0B5FA2546E11704EB52
:1016100011610912A02202EB4101C8B202F076FA70
:1016200002F0F4FAE11704EB11610912A4EB0121B5
:10163000C8B202F06BFA02F0E9FA02F09BFAA120BC
:1016400002F064FA02F0E2FA002002F029FA0646FB
:1016500002F0B6FA304670BD2DE9F04105460E465F
:101660001746002409E0E20026FA02F2D1B22A1954
:1016700090B200F006F8601CC4B2BC42F3DBBDE8D7
:10168000F08170B504460E4602F074FA2546E11763
:1016900004EB11610912A02202EB4101C8B202F071
:1016A00035FA02F0B3FAE11704EB11610912A4EB69
:1016B0000121C8B202F02AFA02F0A8FA304602F07C
:1016C00025FA02F0A3FA02F07BFA0A200EF0A4FD3C
:1016D00070BD014601F00F030A0902EB820003EB23
:1016E0004000C0B2704700BFFEE710B502200EF008
:1016F000B3FD10BD10B500200F4908600F48006809
:1017000020F440000D4908600846006840F480005D
:101710000860FFF7EAFF00200949C1F8AC02FFF7B3
:10172000E4FF012004490860FFF7DFFF00200549BE
:10173000C1F8800210BD00008082404200140240C7
:1017400000804242008040421CB50121222006F068
:10175000DDFD012000908DF8040000208DF80600CA
:1017600001208DF807006946064801F054FC4FF44B
:101770000060009001208DF804006946024801F0E5
:101780004AFC1CBD000402400014024010B50020B9
:101790000F4908600F48006820F440000D490860B8
:1017A0000846006840F480000860FFF79EFF0120B3
:1017B0000949C1F8AC02FFF798FF0120044908600D
:1017C000FFF793FF00200549C1F8800210BD00001B
:1017D0008082404200140240008042420080404229
:1017E00070B5054600241648006820F440001449EE
:1017F00008600846006808601E200EF02DFD0026D7
:1018000013E000200F490860FFF76FFF01200E4929
:10181000C1F880026006040E0C48006808B1601C24
:10182000C4B2FFF762FF701CC6B2082EE9DB15B91F
:10183000FFF7ACFF01E0FFF75DFF204670BD000041
:101840000014024080824042008040422C8242428A
:1018500070B504461348006820F440001149086040
:101860000846006840F48000086000200E490860C7
:10187000FFF73BFF002511E0E0090C490860600616
:10188000040E01200A49C1F88002FFF72EFF002054
:1018900005490860FFF729FF681CC5B2082DEBDB7E
:1018A00070BD00000014024080824042AC8242427F
:1018B0000080404210B50F48006820F440000D49F8
:1018C00008600846006840F48000086001200A496A
:1018D00008600A49C1F880021E200EF0BDFC0020FD
:1018E00005490860FFF701FF00200449C1F88002A4
:1018F00010BD000000140240AC8242420080404211
:1019000010B50D48006820F440000B4908600846F7
:10191000006840F4800008600120084908601E202B
:101920000EF09AFC00200649C1F8AC02FFF7DDFE7C
:1019300001200449086010BD00140240808240422A
:1019400000804242AC82424210B500241248006836
:1019500020F4400010490860084600680860012033
:101960000E4908600E49C1F88002FFF7BEFE09E08B
:10197000601CC4B2FA2C03DDFFF7C2FF012010BDCA
:10198000FFF7B3FE0548803800680028F0D105490C
:10199000086000BFF3E7000000140240AC8242423E
:1019A00000804042808240422DE9FF4105461C48AC
:1019B000006800EB800101EBC0001A4901EBC00098
:1019C000066E182090FBF6F4002701A81449009039
:1019D000096801EB810202EBC101124A02EBC1016D
:1019E00001F1360002AB03AA0FA1FEF739FF0398FD
:1019F0002044182800DB012703982044182190FB7D
:101A0000F1F201FB120003900198009009A1284611
:101A1000DDE90232FEF7A2FD384604B0BDE8F081F0
:101A2000C00000206C06002025643A25643A256435
:101A300000000000253032643A253032643A253007
:101A40003264000010B500241448006820F44000FF
:101A50001249086008460068086004E0601CC4B2CF
:101A600001200EF0F9FB0E48006808B1642CF5DB8C
:101A7000642C01DB012010BD002404E0601CC4B212
:101A800001200EF0E9FB0648006808B9642CF5DB7C
:101A9000642C01DB0120EEE70020ECE70018024097
:101AA0002C0243421CB50121402006F02FFC4FF4CC
:101AB0000060009001208DF8040000208DF80600E1
:101AC00002208DF8050001208DF8070069460448C2
:101AD00001F0A1FA00F06EF8FFF7B4FF1CBD0000A2
:101AE0000018024010B5002404E0601CC4B20120BC
:101AF0000EF0B2FB0D48006808B1642CF5DB002441
:101B000004E0601CC4B201200EF0A6FB0748006888
:101B100008B9642CF5DB28200EF09EFB0348006812
:101B200008B1012010BD0020FCE700002C02434258
:101B300070B50024002506E06006040EFFF7D2FF12
:101B40000443681CC5B2082DF6DB204670BD7CB589
:101B500005460E4600F02EF8FFF774FF28BB002460
:101B600005E0FFF7E5FF0DF80400601CC4B2052C8A
:101B7000F7DB9DF800009DF8011008449DF8021065
:101B800008449DF8031008449DF8041088420ED1C3
:101B90009DF8000030709DF8010070709DF8020003
:101BA00028709DF80300687001E001207CBD0020D2
:101BB000FCE7000010B50C48006820F440000A491A
:101BC00008600846006840F480000860002007496B
:101BD000086014200EF020FB01200549C1F8AC027A
:101BE0001E200EF039FB10BD00180240AC0243422B
:101BF0000000434210B50F2000F0A9F8044624F07D
:101C000001010F2000F0C1F910BD70B504460E208F
:101C100000F09DF8054605F0FE0004F0010240EAE0
:101C200002010E2000F0B1F9012000F05AF970BD58
:101C300001460A2091FBF0F200FB12100A2291FBF0
:101C4000F2F200EB0210C0B2704770B504460025F6
:101C5000062000F07CF805462846FFF73AFD00F51F
:101C6000FA60E080052000F072F805462846FFF78C
:101C700030FD2071042000F06AF805462846FFF781
:101C800028FD6071002070BD70B50446002502205B
:101C900000F05DF805462846FFF71BFD2070012087
:101CA00000F055F805462846FFF713FD6070002048
:101CB00000F04DF805462846FFF70BFDA070002008
:101CC00070BD70B504460025032000F040F80546BD
:101CD0002846FFF7FEFCE070002070BD1CB501F047
:101CE00035FD0121042006F011FB2020009000208A
:101CF0008DF804008DF8060002208DF807000320FF
:101D00008DF8050069460D4801F085F940210E2047
:101D100000F03BF900210F2000F037F90020FFF719
:101D200074FFFFF767FF012000F0DBF8082000F0E8
:101D300052F864200EF070FA1CBD0000000802404A
:101D400010B50F2000F003F800F0010010BD70B5D1
:101D50000446002501F0B2FDD02001F07BFD01F02A
:101D6000F9FD204601F076FD01F0F4FD01F0A6FD3D
:101D7000D12001F06FFD01F0EDFD002001F034FDF8
:101D8000054601F0C1FD284670BD70B50446092026
:101D9000FFF7DDFF00F080052046FFF749FF00F068
:101DA0003F0040EA05063146092000F0EEF870BD1C
:101DB00070B504460820FFF7CAFF00F080052046F2
:101DC000FFF736FF00F03F0040EA050631460820E5
:101DD00000F0DBF870BD70B504460720FFF7B7FFD1
:101DE00000F07F0504F0010045EAC011072000F073
:101DF000CCF80820FFF7ABFF00F07F05C4F34000EC
:101E000045EAC011082000F0C0F80920FFF79FFF45
:101E100000F07F05C4F3800045EAC011092000F0FE
:101E2000B4F80A20FFF793FF00F07F05C4F3C00069
:101E300045EAC01004F0800240EA02010A2000F0E6
:101E4000A4F870BD70B504460720FFF780FF00F0CE
:101E500080052046FFF7ECFE00F03F0040EA050653
:101E60003146072000F091F870BD2DE9F04104469D
:101E70000E4615460A2094FBF0F100FB114000F0DD
:101E8000FF080A2094FBF0F0C7B208EB0714E1B298
:101E9000062000F07AF80A2096FBF0F100FB1160B2
:101EA00000F0FF080A2096FBF0F0C7B208EB07101D
:101EB000C6B23146052000F068F80A2095FBF0F123
:101EC00000FB115000F0FF080A2095FBF0F0C7B2AC
:101ED00008EB0710C5B22946042000F056F8BDE80B
:101EE000F08170B504460E20FFF731FF054605F07E
:101EF000FB0004F0010240EA82010E2000F045F8E8
:101F000070BD2DE9F04104460E4615460A2094FBAB
:101F1000F0F100FB114000F0FF080A2094FBF0F004
:101F2000C7B248EA0710C4B22146022000F02DF8DB
:101F30000A2096FBF0F100FB116000F0FF080A2078
:101F400096FBF0F0C7B248EA0710C6B2314601204E
:101F500000F01BF80A2095FBF0F100FB115000F097
:101F6000FF080A2095FBF0F0C7B248EA0710C5B297
:101F70002946002000F009F8BDE8F08110B50446BC
:101F80002146032000F001F810BD70B505460C464F
:101F900001F094FCD02001F05DFC01F0DBFC284650
:101FA00001F058FC01F0D6FC204601F053FC01F092
:101FB000D1FC01F0A9FC70BD704700002DE9F04F85
:101FC00009ACF0CC4FF00008C446DFF82C91D9F8EA
:101FD000009009EB890A0AEBC909DFF820A14AF849
:101FE000390015E091F800B0DFF80C91D9F80090B5
:101FF00009EB890A0AEBC909DFF800A10AEBC90954
:1020000009F10409C24608F1010809F80AB0491C9F
:1020100091F80090B9F1000FE4D115E092F800B00A
:10202000DFF8D490D9F8009009EB890A0AEBC909C6
:10203000DFF8C8A00AEBC90909F13609E2460CF13C
:10204000010C09F80AB0521C92F80090B9F1000F87
:10205000E4D1DFF8A490D9F8009009EB890A0AEBE3
:10206000C909DFF898A00AEBC909C9F85430DFF8AC
:102070008890D9F8009009EB890A0AEBC909DFF8C2
:102080007CA00AEBC909C9F85840DFF86C90D9F870
:10209000009009EB890A0AEBC909DFF860A00AEB96
:1020A000C909C9F85C50DFF85090D9F8009009EBE5
:1020B000890A0AEBC909DFF844A00AEBC909C9F883
:1020C0006060DFF83490D9F8009009EB890A0AEBD8
:1020D000C909DFF828A00AEBC909C9F86470DFF85C
:1020E0001890D9F8009009F10109DFF80CA0CAF89E
:1020F0000090BDE8F08F0000BC0000206C060020BE
:1021000070B505460024002600BF0BE004EB8400F8
:1021100000EBC400154951F83000A84201D1264611
:1021200004E0641C124800688442EFDB00BF3446C0
:1021300011E0621C02EB820303EBC2020B4B03EBC8
:10214000C20104EB840202EBC40203EBC20068226A
:10215000FEF72FFD641C064800688442E9DB044852
:102160000068401E0249086070BD00006C06002037
:10217000BC00002070B50024002500BF45E004EB42
:10218000840000EBC400234901EBC000406D2249EC
:10219000096801EB810202EBC1011E4A02EBC10199
:1021A000496D884202DA1C4804602DE004EB84008B
:1021B00000EBC400174901EBC000406D16490968E7
:1021C00001EB810202EBC101124A02EBC101496D30
:1021D000884219D1104A126802EB820303EBC20253
:1021E0000C4B03EBC20202F1360104EB840202EB5A
:1021F000C40203EBC20202F136000DF08DFC05466D
:10220000002D01DA04480460641C0448006884421C
:10221000B5DB70BD6C060020C0000020BC000020B3
:102220002DE9F04F04461D46DDE909670023984675
:102230009C46002000BF0CE003EB830909EBC309B7
:10224000DFF8E0A05AF83990A14501D1184606E020
:102250005B1CDFF8D490D9F800904B45ECDB00BF55
:1022600011E091F800B000EB800909EBC009DFF83C
:10227000B4A00AEBC90909F10409C24608F1010832
:1022800009F80AB0491C91F80090B9F1000FE8D1A3
:1022900011E092F800B000EB800909EBC009DFF80B
:1022A00084A00AEBC90909F13609E2460CF1010CD8
:1022B00009F80AB0521C92F80090B9F1000FE8D169
:1022C00000EB800909EBC009DFF858A00AEBC90947
:1022D000C9F8545000EB800909EBC0090AEBC909A1
:1022E000C9F8586000EB800909EBC0090AEBC9097D
:1022F000C9F85C7000EB800A0AEBC00ADFF824B072
:102300000BEBCA0ADDF82C90CAF8609000EB800A4B
:102310000AEBC00A0BEBCA0ADDF83090CAF86490E9
:10232000BDE8F08F6C060020BC0000201FB57AE0ED
:102330004FF0FF3000230122082100903A48006846
:102340003CF09CF9FFF716FF01A838490090096896
:1023500001EB810202EBC101354A02EBC10101F13F
:10236000360002AB03AA33A1FEF77AFA0199C8B28C
:10237000FFF768FD0299C8B2FFF71AFD0399C8B2CA
:10238000FFF703FD2948006800EB800101EBC00066
:10239000274901EBC00000F1360229A12948FEF7C8
:1023A000DDF828492848006826F04EFC002227491D
:1023B000254800682DF040F91C48006800EB8001BA
:1023C00001EBC0001A4901EBC000021D1CA11D4811
:1023D000FEF7C4F81B491E48006826F035FC0022B1
:1023E0001A491B4800682DF027F91048006800EBD7
:1023F000800101EBC0000E4901EBC00015A1426E47
:102400001048FEF7ABF80F491448006826F01CFC92
:1024100000220E49114800682DF00EF907F05EFE0B
:1024200064203BF00BFD83E750000020C00000203B
:102430006C06002025643A25643A256400000000FB
:102440002573000034040020C003002074A3040896
:10245000C80300202564E7B292000000D0030020EA
:1024600010B54FF480710348FEF7DDFB00200249F0
:10247000088010BD60050020A400002070B505464E
:10248000002400BF00F022F978B90DA11048FEF732
:10249000ABFA04464CB10FA12046FEF7A5FA04465C
:1024A0000CB1204670BD0020FCE705200DF0B4FE05
:1024B000281EA5F101018DB2E4D100BFF2E70000B2
:1024C0002B4D515454535542524543560000000081
:1024D000600500207B00000010B5FFF7C1FF22A0BF
:1024E000FEF730F803E04FF4FA700DF095FE20A1EE
:1024F00020A000F08FF80028F5D120A0FEF722F8E8
:102500001DA121A000F086F84FF4FA700DF084FEB2
:1025100020A0FEF717F803E04FF4FA700DF07CFEF0
:1025200013A121A000F076F80028F5D122A0FEF733
:1025300009F803E04FF4FA700DF06EFE0CA123A031
:1025400000F068F80028F5D124A0FDF7FBFF03E0B8
:102550004FF4FA700DF060FE24A126A000F05AF8A6
:102560000028F5D110BD0000302E2041540D0A0086
:102570004F4B000041540D0A00000000312E204155
:10258000542B5253540D0A0041542B5253540D0AEC
:1025900000000000322E2041542B43574D4F44453C
:1025A0003D310D0A0000000041542B43574D4F446C
:1025B000453D310D0A000000332E2041542B434984
:1025C000504D55583D300D0A0000000041542B433A
:1025D00049504D55583D300D0A000000342E204121
:1025E000542B43574A41500D0A000000474F5420D6
:1025F0004950000041542B43574A41503D226C6AD8
:102600007878222C223132333435363738220D0A8D
:10261000000000002DE9F04104460D46C826204682
:10262000FEF718FA87B23A4621460D4807F010FE29
:102630000FE000F04BF848B929460A48FEF7D4F9F4
:1026400020B1FFF70DFF0020BDE8F0810A200DF05A
:10265000E3FD301EA6F10101CEB2EAD10120F3E77D
:10266000004400406005002030B5A1B004460D468E
:10267000802101A8FEF7F9FAFFF7F2FE09A0FDF7A5
:1026800061FF2A460BA101A8FDF768FF0DA101A873
:10269000FFF7C0FF20B92A4621460B4807F0D8FDB6
:1026A00021B030BD372E2041542B43495053454E65
:1026B000440D0A0041542B43495053454E443D2597
:1026C000640D0A003E000000004400400A480088F3
:1026D00008B90120704708480088084909888842DD
:1026E00003D1002004490880F4E703480088034927
:1026F00008800120EEE70000A4000020A6000020D2
:10270000014621293ED2DFE801F011131517191BEC
:102710001D1F212325273D3D3D3D292B3D3D3D2DC1
:102720003D3D2F313335373D3D393B0017A02BE080
:1027300017A029E01AA027E01EA025E022A023E090
:1027400029A021E030A01FE036A01DE043A01BE03F
:1027500045A019E048A017E04BA000BF53A013E02C
:1027600056A011E059A00FE061A00DE064A00BE0BD
:1027700066A009E069A007E06DA005E071A003E094
:1027800073A001E075A000BF00BF70474F4B000071
:10279000CAFDBEDDB0FCBDD3CAD5B4EDCEF300009A
:1027A000B4ABB8D0C6F7C9CFC3BBD3D0CAD6D6B89E
:1027B00000000000C2BCC8EBD6B8CEC6CDBCCFF17D
:1027C000CAA7B0DC00000000D6B8CEC6CDBCCFF1A1
:1027D000CCABB8C9A1A2CCABB5ADB6F8C9FAB2BB07
:1027E000B3C9CCD8D5F70000D6B8CEC6CDBCCFF192
:1027F000CCABCAAAA1A2CCABBAFDB6F8C9FAB2BB9F
:10280000B3C9CCD8D5F70000D6B8CEC6CDBCCFF171
:10281000CCABC2D2B6F8C9FAB2BBB3C9CCD8D5F7E3
:1028200000000000D6B8CEC6CDBCCFF1D5FDB3A315
:10283000A3ACB5ABCCD8D5F7B5E3CCABC9D9A3A87D
:10284000BBF2C3E6BBFDCCABD0A1A3A9B6F8C9FAD5
:10285000B2BBB3C9CCD8D5F700000000D6B8CEC6FD
:10286000B2BBC6A5C5E40000C3BBCBD1CBF7B5BD99
:10287000D6B8CEC600000000CCD8D5F7BACFB2A2E9
:10288000CAA7B0DC00000000B7C3CECAD6B8CEC617
:10289000BFE2CAB1B5D8D6B7D0F2BAC5B3ACB3F6B9
:1028A000D6B8CEC6BFE2B7B6CEA70000C9BEB3FD4C
:1028B000C4A3B0E5CAA7B0DC00000000C7E5BFD5DF
:1028C000D6B8CEC6BFE2CAA7B0DC0000BBBAB3E53B
:1028D000C7F8C4DAC3BBD3D0D3D0D0A7D4ADCABC59
:1028E000CDBCB6F8C9FAB2BBB3C9CDBCCFF10000BC
:1028F000B6C1D0B420464C41534820B3F6B4ED00E5
:10290000CEB4B6A8D2E5B4EDCEF30000CEDED0A7AB
:10291000BCC4B4E6C6F7BAC500000000BCC4B4E647
:10292000C6F7C9E8B6A8C4DAC8DDB4EDCEF3000036
:10293000BCC7CAC2B1BED2B3C2EBD6B8B6A8B4ED5A
:10294000CEF30000D6B8CEC6BFE2C2FA0000000047
:10295000B5D8D6B7B4EDCEF300000000C4A3BFE9EC
:10296000B7B5BBD8C8B7C8CFC2EBD3D0CEF3000041
:1029700051B18200A2F1C042126842F0010382000C
:10298000A2F1C042136009E08200A2F1C0421268C5
:10299000034B1A408300A3F1C0431A607047000044
:1029A000FEFF0F00D0E901121143C2681143026912
:1029B00011434269114382691143C2691143026A9A
:1029C0001143426A1143826A1143C26A1143026B86
:1029D000114302689200A2F1C04211608168082987
:1029E0000BD101688900A1F1C041096841F04002A2
:1029F00001688900A1F1C0410A60416B0968426B1E
:102A0000526841EA0211426B926841EA0221426B2C
:102A1000928941EA0241426B128A41EA0251426BB9
:102A2000127D41EA0261426B926911430268521CB5
:102A30009200A2F1C0421160C16AB1F5804F1BD172
:102A4000816B0968826B526841EA0211826B92685D
:102A500041EA0221826B128A41EA0251826B127DA5
:102A600041EA0261826B9269114302689200A2F10D
:102A7000C042C2F8041107E06FF07042016889009B
:102A8000A1F1C041C1F80421704700001FB5012128
:102A9000062005F03BFC0220009000208DF8040089
:102AA0008DF8060003208DF8050001208DF8070041
:102AB0006946454800F0AFFA4FF4005000900120FD
:102AC0008DF804006946414800F0A5FAFEF73CFE87
:102AD00000203F49086014200DF09EFB01203D4975
:102AE000C1F8B40232200DF097FB00208DF80800E9
:102AF000012202A900F066FA012202A9A42000F036
:102B000061FA16208DF80800012202A9802000F049
:102B100059FA0C208DF80800012202A9882000F043
:102B200051FA022202A9A12000F064F89DF80800E1
:102B3000302803D19DF8090003280DD09DF8090025
:102B4000012809D09DF80900022805D09DF8080049
:102B500060B99DF8090048B99DF809009DF8082062
:102B600000EB02211CA0FDF7EDFC2AE0042202A9E3
:102B700048F2401000F076FB00208DF80C0002A90E
:102B800018A0FDF7DFFC1A480299016002208DF8B9
:102B90000800012202A948F2400000F00FFD0122C6
:102BA00002A948F2470000F05DFB0A200DF034FB5B
:102BB00000208DF80800012202A948F2400000F030
:102BC000FDFC002004B010BD0004024000080240DB
:102BD000B4024142000041424354502049443A2546
:102BE000780D0A004354502049443A25730D0A00D9
:102BF0005C0000202DE9F04106460F461546FEF721
:102C000059FE7020FEF724FEFEF79EFEF0B2FEF79E
:102C10001FFEFEF799FEFEF74DFE7120FEF718FE2F
:102C2000FEF792FE00240BE0691EA14201D00121B3
:102C300000E000210846FEF7D3FD3855601CC4B201
:102C4000AC42F1DBFEF75CFEBDE8F08171B583B00C
:102C5000002001900026D3480078401CD14908701C
:102C6000084600780A2190FBF1F201FB120018B12E
:102C7000CC4800780A287DDACBA1CC48FEF748F88A
:102C8000D8B9012203A948F24E1000F0EBFA9DF8E2
:102C90000C0000F08000A8B19DF80C0000F00F00BF
:102CA000C349097888420DDC00200190012201A966
:102CB00048F24E1000F082FC04E0012203A9022039
:102CC000FFF798FF9DF80C0000F00F00002851D08E
:102CD0009DF80C0000F00F00B5490978884249DCE6
:102CE0009DF80C0000F00F01FF208840C4B2B148ED
:102CF00090F82050E043C0B240F0C000AD4981F8E8
:102D0000200008468289AA480078401E0C3121F82C
:102D10001020A848C28AA6480078401E0A3121F82F
:102D2000102004200DF078FA00200190ABE0A148BB
:102D300090F820009DF804200121914008400028CF
:102D40002FD099A19948FDF7E3FFE8BB9A499DF878
:102D5000042031F81200042202A900F083FA9548F9
:102D600090F8300000F00100E0B19DF808009DF8F7
:102D7000091000E0C5E000EB012081B28D480C3065
:102D80009DF8042020F812109DF80A009DF80B1001
:102D900000EB012081B2874816309DF8042020F80E
:102DA00012106BE09DF808009DF8091000EB01205F
:102DB00081B2804816309DF8042020F812109DF84A
:102DC0000A009DF80B1000E00CE000EB01207B49AD
:102DD0000988081A81B277480C309DF8042020F841
:102DE00012104BE076499DF8042031F812000422BD
:102DF00002A9FFF7FFFE6F4890F8300000F00100D5
:102E0000E0B19DF809009DF8081001F00F0100EBFA
:102E10000120684916319DF8042021F812009DF820
:102E20000B009DF80A1001F00F0100EB0120614931
:102E30000C319DF8042021F812001FE09DF80900D4
:102E40009DF8081001F00F0100EB01205B49098893
:102E5000081A81B257480C309DF8042020F812104F
:102E60009DF80B009DF80A1001F00F0100EB012006
:102E7000504916319DF8042021F812009DF80400F5
:102E8000401CC0B201909DF804004949097888426D
:102E9000FFF64DAF01264748808948490988884296
:102EA00005DC4448C08A45494988884226DD9DF8AA
:102EB0000C0000F00F0001280ADD3E48C0893D49A2
:102EC00088810846008BC88200203649087018E0C7
:102ED00037480078401E37490C3131F810000C3962
:102EE000888133480078401E163131F810001639B9
:102EF000C8828020039081F8205002E000202949F8
:102F0000087029A12948FDF703FF08BB9DF80C00B4
:102F100000F08F0080283BD1264890F8200000F078
:102F2000800040B1234890F8200020F08000214923
:102F300081F820002CE04FF6FF701E498881C8827E
:102F4000084690F8200000F0E00081F820001FE023
:102F50009DF80C0000F01F00D0B9164890F8200032
:102F600000F0800040B1134890F8200020F080006D
:102F7000104981F820000BE04FF6FF700D49888161
:102F8000C882084690F8200000F0E00081F8200098
:102F900004480078F02802DD0A2002490870304613
:102FA00004B070BD62000020393131005C000020A7
:102FB000610000206800002066040408520500201B
:102FC0005C0404082DE9F04105460E4617464FF013
:102FD0000008FEF76FFC7020FEF73AFCFEF7B4FC29
:102FE000E8B2FEF735FCFEF7AFFC00240BE0305DE5
:102FF000FEF72EFCFEF7A8FC8046B8F1000F00D0CB
:1030000003E0601CC4B2BC42F1DB00BFFEF778FCF9
:103010004046BDE8F081F0B50A46002100230024B7
:1030200000BF3DE0012505FA01F3156805EA030438
:103030009C4234D105684F000326BE40B54305606D
:1030400015794E00B5400668354305601579012DA8
:1030500002D01579022D16D185684F000326BE4097
:10306000B543856055794E00B54086683543856027
:10307000456801268E40B5434560456896798E4087
:10308000B6B235434560C5684F000326BE40B54320
:10309000C560D5794E00B540C6683543C560491C4A
:1030A0001029BFD3F0BDF0B5002300244D07ED0E6D
:1030B00002FA05F3CE1000F1200555F826504E0710
:1030C000F70E0F26BE40B543CF1000F1200646F89C
:1030D0002750CE1000F1200555F8265045EA03048C
:1030E000CE1000F1200545F82640F0BD4183704721
:1030F000018370471FB50121062005F007F9022062
:10310000009000208DF804008DF8060003208DF853
:10311000050001208DF8070069463F48FFF77BFF57
:103120004FF40050009001208DF8040069463B48A0
:10313000FFF771FFFEF708FB0020394908600A20FD
:103140000DF06AF801203749C1F8B4020A200DF0E9
:1031500063F80220009001208DF8040000208DF813
:10316000070069462C48FFF756FF64200DF054F81D
:10317000042202A948F2401000F074F800208DF8F3
:103180000C0029A102A8FDF7C3FD88B127A102A860
:10319000FDF7BEFD60B127A102A8FDF7B9FD38B16A
:1031A00026A102A8FDF7B4FD10B1012004B010BDA6
:1031B00002A924A0FDF7C6F91CA102A8FDF7A8FDED
:1031C00040BB02208DF80800012202A948F240000D
:1031D00000F0F4F9012202A948F2470000F042F899
:1031E0009DF80800602807DA9DF8081018A0FDF780
:1031F000A9F9012000F0B4F90A200DF00DF8002023
:103200008DF80800012202A948F2400000F0D6F92A
:103210000020CBE70020C9E700040240000802407C
:10322000B402414200004142393131003931343772
:1032300000000000313135380000000039323731EC
:10324000000000004354502049443A25730D0A0001
:1032500044656661756C74205665723A25640D0A82
:10326000000000002DE9F04105460F461646FEF726
:1032700021FB2820FEF7ECFAFEF766FB2812FEF78A
:10328000E7FAFEF761FBE8B2FEF7E2FAFEF75CFB55
:10329000FEF710FB2920FEF7DBFAFEF755FB0024B2
:1032A0000BE0711EA14201D0012100E0002108467F
:1032B000FEF796FA3855601CC4B2B442F1DBFEF753
:1032C0001FFBBDE8F081000071B583B0002400262B
:1032D0009F480078401C9E490870084600780A21E3
:1032E00090FBF1F201FB120018B1994800780A280E
:1032F0007EDA012203A948F24E10FFF7B3FF9DF8D2
:103300000C0000F0800068B19DF80C0000F00F0088
:10331000062807DA00200190012201A948F24E1088
:1033200000F04CF99DF80C0000F00F0000285FD071
:103330009DF80C0000F00F000628D9DA9DF80C006B
:1033400000F00F01FF208840C0B20190814890F842
:1033500020509DF80400C043C0B240F0C0007D4939
:1033600081F82000084681898182C18AC1830024B6
:1033700091E0784890F820000121A1400840002801
:1033800039D0754931F81400042202A9FFF76AFF09
:103390007248808845F2105188420BD06F4880886F
:1033A00049F60601884205D06C48808847F296713C
:1033B000884238D1674890F8300000F00100D8B159
:1033C0009DF808009DF8091000EB012081B26148CA
:1033D000163020F814109DF80A009DF80B1000EB31
:1033E00001205E490988081A81B25A480C3000E071
:1033F00082E020F814104CE09DF808009DF80910B8
:1034000000EB012081B253480C3020F814109DF8D5
:103410000A009DF80B1000EB012081B24D481630D8
:1034200020F8141035E04B4890F8300000F001000F
:10343000B0B19DF808009DF8091000EB012081B2A1
:1034400044480C3020F814109DF80A009DF80B1029
:1034500000EB012081B23F48163020F8141018E02C
:103460009DF808009DF8091000EB012081B2394851
:10347000163020F814109DF80A009DF80B1000EB90
:10348000012036490988081A81B232480C3020F8E8
:103490001410601CC4B2052CFFF66BAF01262D483A
:1034A00080892E490988884205DC2A48C08A2B4930
:1034B000498888421DDD9DF80C0000F00F000128AE
:1034C0000ADD2448C089234988810846008BC882C8
:1034D00000201F4908700FE01E48808A1D4988811E
:1034E0000846C08BC88280200390084680F8205090
:1034F00002E00020164908709DF80C0000F08F00D3
:1035000080281AD1134890F8200000F0800040B1C4
:10351000104890F8200020F080000E4981F820002B
:103520000BE04FF6FF700B498881C882084690F87F
:10353000200000F0E00081F8200005480078F02825
:1035400002DD0A2002490870304604B070BD000058
:1035500063000020680000202805040852050020B0
:1035600038B50546002400208DF800008DF8015084
:1035700000BF09E09DF800000F49095D0844C0B292
:103580008DF80000601CC4B2B82CF3D39DF8000085
:10359000C043401CC0B28DF80000B822064948F272
:1035A000470000F00BF80222694648F2FF0000F0E5
:1035B00005F8002038BD0000700404082DE9F04132
:1035C00004460E4617464FF00008FEF773F9282010
:1035D000FEF73EF9FEF7B8F92012FEF739F9FEF7CB
:1035E000B3F9E0B2FEF734F9FEF7AEF900250BE0CF
:1035F000705DFEF72DF9FEF7A7F98046B8F1000FD0
:1036000000D003E0681CC5B2BD42F1DB00BFFEF78D
:1036100077F94046BDE8F08110B5FEF721FF15A00F
:10362000FCF790FF03E04FF4FA700CF0F5FD1AA1DF
:103630001BA0FEF7EFFF0028F5D123A0FCF782FFC7
:1036400003E04FF4FA700CF0E7FD24A124A0FEF78C
:10365000E1FF0028F5D168212548FFF705F84FF470
:10366000FA700CF0D9FD234804F0EAFDFEF7F8FEED
:1036700010BD0000352E2041542B43495053544176
:10368000525420204E4F5741504920636F6E6E2E8A
:103690002E2E0D0A00000000434F4E4E45435400AD
:1036A00041542B43495053544152543D22544350AA
:1036B000222C226170692E6B3738302E636F6D2299
:1036C0002C38300D0A000000362E2041542B43497F
:1036D000504D4F44453D300D0A0000004F4B000057
:1036E00041542B4349504D4F44453D300D0A000095
:1036F0000C1105086005002000BFFEE710B5002092
:103700000F4908600F48006820F040600D490860CC
:103710000846006840F08060086000200A49C1F84F
:10372000B40202200CF098FD012005490860022037
:103730000CF092FD00200449C1F8B00210BD000059
:10374000B082404200040240008040421CB501218A
:10375000022004F0DBFD4FF44050009001208DF872
:10376000040000208DF8060003208DF805000120DC
:103770008DF8070069460548FFF74DFC0120044914
:1037800008600449C1F8B4021CBD000000040240F6
:10379000B08240420080404210B500200F490860CE
:1037A0000F48006820F040600D4908600846006836
:1037B00040F08060086001200A49C1F8B40202208C
:1037C0000CF04AFD01200549086002200CF044FD80
:1037D00000200449C1F8B00210BD0000B082404290
:1037E000000402400080404270B50546002416489F
:1037F000006820F0406014490860084600680860CE
:10380000002616E000201149086002200CF024FD7B
:1038100001200F49C1F8B0026006040E0B487C3845
:10382000006808B1601CC4B201200CF015FD701CCA
:10383000C6B2082EE6DB15B9FFF7AEFF01E0FFF7D1
:103840005DFF204670BD000000040240B08240428F
:103850000080404270B504461548006820F0406082
:10386000134908600846006840F080600860002046
:1038700010490860002517E0E0090E49091D08609D
:103880006006040E02200CF0E7FC01200A49C1F892
:10389000B00202200CF0E0FC002006490860022083
:1038A0000CF0DAFC681CC5B2082DE5DB70BD000029
:1038B00000040240B08240420080404210B50F48F0
:1038C000006820F040600D4908600846006840F03C
:1038D0008060086001200A4908600A49C1F8B00206
:1038E00004200CF0B9FC00200549086004200CF00D
:1038F000B3FC00200349C1F8B00210BD000402402F
:10390000B48240420080404210B50F48006820F069
:1039100040600D4908600846006840F0806008601B
:1039200000200A4908600A49C1F8B40204200CF0DA
:1039300093FC0120054908600549C1F8B402042040
:103940000CF08AFC10BD000000040240B08240422E
:103950000080404210B500241348006820F0406009
:103960001149086008460068086001200F49086096
:103970000CF072FC01200E49C1F8B0020CF06CFC96
:1039800007E0601CC4B2FA2C03DDFFF7BDFF012085
:1039900010BD0648803800680028F2D10349091F8D
:1039A000086000BFF4E7000000040240B482404217
:1039B0000080404210B500200F4908600F480068A1
:1039C00020F440200D4908600846006840F480203B
:1039D000086000200A49C1F8A40202200CF03CFC57
:1039E00001200549086002200CF036FC0020044943
:1039F000C1F8A00210BD0000A082404200040240B5
:103A0000008040421CB50121022004F07FFC4FF4ED
:103A10004070009001208DF8040000208DF8060011
:103A200003208DF8050001208DF807006946054840
:103A3000FFF7F1FA0120044908600449C1F8A40223
:103A40001CBD000000040240A082404200804042B1
:103A500010B500200F4908600F48006820F440208E
:103A60000D4908600846006840F480200860012085
:103A70000A49C1F8A40202200CF0EEFB012005491E
:103A8000086002200CF0E8FB00200449C1F8A00205
:103A900010BD0000A082404200040240008040426D
:103AA00070B5054600241648006820F440201449EB
:103AB0000860084600680860002616E000201149EA
:103AC000086002200CF0C8FB01200F49C1F8A002D9
:103AD0006006040E0B487C38006808B1601CC4B254
:103AE00001200CF0B9FB701CC6B2082EE6DB15B93C
:103AF000FFF7AEFF01E0FFF75DFF204670BD00005D
:103B000000040240A08240420080404270B504465A
:103B10001548006820F440201349086008460068F2
:103B200040F480200860002010490860002517E05C
:103B3000E0090E49091D08606006040E02200CF021
:103B40008BFB01200A49C1F8A00202200CF084FB83
:103B500000200649086002200CF07EFB681CC5B2FC
:103B6000082DE5DB70BD000000040240A082404249
:103B70000080404210B50F48006820F440200D49F5
:103B800008600846006840F48020086001200A4967
:103B900008600A49C1F8A00204200CF05DFB002077
:103BA0000549086004200CF057FB00200349C1F8C8
:103BB000A00210BD00040240A482404200804042A6
:103BC00010B50F48006820F440200D4908600846F1
:103BD000006840F48020086000200A4908600A4913
:103BE000C1F8A40204200CF037FB0120054908604D
:103BF0000549C1F8A40204200CF02EFB10BD000002
:103C000000040240A08240420080404210B50024DF
:103C10001348006820F440201149086008460068F5
:103C2000086001200F4908600CF016FB01200E49C6
:103C3000C1F8A0020CF010FB07E0601CC4B2FA2C23
:103C400003DDFFF7BDFF012010BD06488038006886
:103C50000028F2D10349091F086000BFF4E7000003
:103C600000040240A4824042008040421CB5012171
:103C7000042004F04BFB012000908DF8040000208C
:103C80008DF8060003208DF8050002208DF807004E
:103C900069460248FFF7BFF91CBD0000000802405A
:103CA00070B5044601201A4908604FF47A700CF090
:103CB000D3FA00201749C1F880024FF448600CF095
:103CC000CBFA00251DE001201149086004F0010035
:103CD00050B14FF416700CF0BFFA00200C49086088
:103CE000D2200CF0B9FA09E0D2200CF0B5FA00208D
:103CF000074908604FF416700CF0AEFA6410681CA7
:103D0000C5B2082DDFDB01200149086070BD00004D
:103D1000800241420000414270B5044600250A205D
:103D200094FBF0F0C5B20A20FFF7BAFF2846FFF770
:103D3000B7FF0020FFF7B4FF0C20FFF7B1FF4FF4EF
:103D4000FA600CF069FA70BD10B50A20FFF7E4FFC5
:103D50000A20FFF7A5FF0120FFF7A2FF0B20FFF7C6
:103D60009FFF4FF4FA600CF057FA10BD10B50A200F
:103D7000FFF796FF1320FFF793FF4FF4FA600CF064
:103D80004BFA10BD7CB50546EF208DF800000120F0
:103D90008DF801001A480068000E8DF802001848DE
:103DA0000068000C8DF8030015480088000A8DF8A3
:103DB0000400134800788DF8050007208DF80600F0
:103DC00000208DF807000F49088012E001200CF058
:103DD00023FA0C48008800F4004050B10020094943
:103DE000088069460848FCF7FFFD04460CB12046F0
:103DF0007CBD681E80B2051EE8D100BFF8E7000058
:103E0000A8000020D0000020040A002070B504465D
:103E1000002609480588408845430021084603F0EC
:103E20009DFA03F055FC00BF02E004480480761CB4
:103E3000AE42FAD370BD0000520500208000006C35
:103E40002DE9F84F07460D4690469946DDF828B013
:103E5000A8EB0700401C1FFA80FAA9EB0500401CE4
:103E600080B20090002414E0281981B2384603F093
:103E700075FA03F02DFC002607E004FB0A603BF80E
:103E8000100006490880701C86B25645F5DB601CA0
:103E900084B200988442E7DBBDE8F88F8000006CB4
:103EA00010B5044658488471002C58D1F02056496A
:103EB00008804FF4A07048800846808845F2105171
:103EC000884210D14FF430504F4908814FF42850A8
:103ED00048814FF42C5088814FF4F07008804FF4E3
:103EE000487048801AE04848808841F6631188424B
:103EF0000DD12C20444908812B2048812A2088811B
:103F00004FF4F07008804FF44870488006E02C2091
:103F10003D4908812A2048812B2088813A488088A1
:103F200045F21031884205D03748808847F29671B3
:103F3000884206D14FF4A070334908804FF4F070E6
:103F400048803148808849F60601884258D14FF4AC
:103F5000F0702D4908804FF44870488050E04FF4CD
:103F6000A07029490880F02048800846808845F2E2
:103F70001051884210D14FF43050234908814FF43A
:103F8000285048814FF42C5088814FF448700880A5
:103F90004FF4F070488020E01B48808841F66311A0
:103FA000884205D01848808849F6060188420DD11C
:103FB0002C20154908812A2048812B2088814FF424
:103FC000487008804FF4F070488006E02C200E49BD
:103FD00008812A2048812B2088810B48808845F25F
:103FE0001031884205D00848808847F2967188428F
:103FF00006D14FF4F070044908804FF4A070488057
:10400000002003F08BF810BD520500202DE9FF4F72
:1040100084B081468A460020039002900698A0EB67
:1040200009050798A0EB0A06CDF80490CDF800A08A
:10403000002D01DD012705E00DB9002702E04FF05A
:10404000FF376D42002E02DD4FF0010806E016B981
:104050004FF0000802E04FF0FF387642B54201DD34
:104060002C4600E034464FF0000B21E0009A91B25C
:10407000019A90B200F022F8039828440390029825
:10408000304402900398A04205DD0398001B039082
:104090000198384401900298A04205DD0298001B67
:1040A00002900098404400900BF101001FFA80FB41
:1040B000601C8345DADD08B0BDE8F08F30B50446FA
:1040C0000D462946204603F049F903F001FB02485A
:1040D00000880249088030BD9E0000208000006CEE
:1040E0002DE9F04306460F4690460024454603203E
:1040F000A0EB48093CE07A1B91B2321990B2FFF76D
:10410000DDFF3A1B91B2721990B2FFF7D7FF3A194F
:1041100091B2721990B2FFF7D1FF7A1991B23219A8
:1041200090B2FFF7CBFF7A1991B2321B90B2FFF732
:10413000C5FF3A1991B2721B90B2FFF7BFFF7A1B0D
:1041400091B2321B90B2FFF7B9FF3A1B91B2721BCA
:1041500090B2FFF7B3FF641CB9F1000F03DAA000BF
:10416000801D814404E0601B80000A3081446D1E84
:10417000AC42C0DDBDE8F08330B504460D46394899
:10418000808845F21051884220D13649488903F091
:1041900093FA201203F084FA32494989491C88B203
:1041A00003F08AFAE0B203F07BFA2E49888903F023
:1041B00083FA281203F074FA2A498989491C88B2C3
:1041C00003F07AFAE8B203F06BFA42E025488088FF
:1041D00041F66311884228D12248807920B92148CC
:1041E0000088401E001B84B21E49488903F064FA0F
:1041F000201203F055FAE0B203F052FA201203F055
:104200004FFAE0B203F04CFA1649888903F054FAE9
:10421000281203F045FAE8B203F042FA281203F03C
:104220003FFAE8B203F03CFA13E00E49488903F084
:1042300043FA201203F034FAE0B203F031FA0949EC
:10424000888903F039FA281203F02AFAE8B203F059
:1042500027FA04480089044908804FF0D840A0F8A4
:10426000802030BD520500207E00006C00B5A1B05A
:104270000020209001217A2004F048F8012108460E
:1042800004F054F84FF400401E9001208DF87C009B
:1042900000208DF87E0002208DF87D0001208DF831
:1042A0007F001EA9FE48FEF7B6FE4CF233701E904A
:1042B00002208DF87C0000208DF87E0003208DF810
:1042C0007D0001208DF87F001EA9F648FEF7A3FEB1
:1042D0004FF680701E9002208DF87C0000208DF833
:1042E0007E0003208DF87D0001208DF87F001EA93F
:1042F000ED48FEF790FE4FF480501E9002208DF89E
:104300007C0000208DF87E0003208DF87D000120C8
:104310008DF87F001EA9E548FEF77DFE4FF4805022
:104320001E9002208DF87C0000208DF87E00032076
:104330008DF87D0001208DF87F001EA9DC48FEF776
:104340006AFE0C220021D748FEF7ADFE0C220121A7
:10435000D448FEF7A8FE0C220421D248FEF7A3FEA3
:104360000C220521CF48FEF79EFE0C220821CD48E5
:10437000FEF799FE0C220921CA48FEF794FE0C2292
:104380000A21C848FEF78FFE0C220E21C548FEF711
:104390008AFE0C220F21C348FEF785FE0C2207215E
:1043A000C148FEF780FE0C220821BF48FEF77BFEC5
:1043B0000C220921BC48FEF776FE0C220A21BA48DD
:1043C000FEF771FE0C220B21B748FEF76CFE0C22A3
:1043D0001146B548FEF767FE0C220D21B248FEF7E4
:1043E00062FE0C220E21B048FEF75DFE0C220F216A
:1043F000AD48FEF758FE0C221146AC48FEF753FEBE
:104400000C221146AA48FEF74EFE0F20089000200D
:1044100009903C200A9000200B900C900D900E907B
:1044200009200190002002900820039000200490B1
:1044300005900690079006200F9000201090119094
:104440001020129000201390159014901690179041
:104450004FF480501890002019904FF480401A902B
:1044600000201B9008A81C9001A81D900FA8FEF723
:1044700099FA01210620FEF77BFA32200BF0CCFEE0
:10448000D32003F019F902F00FFE8A49888002F068
:104490000BFE8849888002F007FE8649888008461E
:1044A00080884FF6FF7101EA00208249888002F07F
:1044B000FBFD8049898808437E49888008468088BA
:1044C00049F2413188427CD0042003F0F5F802F033
:1044D000EBFD7849888002F0E7FD7649888002F09C
:1044E000E3FD74498880084680884FF6FF7101EA31
:1044F00000207049888002F0D7FD6E498988084302
:104500006C4988800846808848F25251884203D11D
:1045100047F28970674988806648808847F28971C8
:104520008842D0D0D42003F0C7F802F0BDFD614925
:10453000888002F0B9FD5F49888002F0B5FD5D49D1
:104540008880084680884FF6FF7101EA00205949AB
:10455000888002F0A9FD5749898808435549888019
:104560000846808845F210318842ACD0D32003F051
:10457000A3F802F099FD4F49888002F095FD4D495E
:10458000888002F091FD4B498880084680884FF66C
:10459000FF7101EA00204749888002F085FD454906
:1045A00089880843434988800846808847F2967185
:1045B000884288D055214FF4704003F093F8AA2127
:1045C00000E094E04FF2010003F08CF852214FF22A
:1045D000020003F087F808214FF2030003F082F88D
:1045E00001214FF2040003F07DF84FF4454003F041
:1045F00063F802F059FD2F498880084680884FF6FD
:10460000FF7101EA00202B4988804CF2015003F031
:1046100053F802F049FD27498988084325498880D5
:1046200005200BF0F9FD23488088B0F5004F03D139
:1046300045F210501F4988801E48808845F210516D
:10464000884254D0D32003F037F802F02DFD1949E9
:10465000888002F029FD1749888002F025FD154960
:104660008880084680884FF6FF7101EA00201149D2
:10467000888002F019FD0F49898808430D49888018
:104680000846808849F60601884230D0A12003F010
:1046900013F802F009FD0749888002F005FD0BE0E0
:1046A00000040240000C02400010024000140240CE
:1046B0000018024052050020FE4988800846808884
:1046C0004FF6FF7101EA0020FA49888002F0ECFC05
:1046D000F84989880843F74988800846808845F268
:1046E0006171884203D141F66310F2498880F14834
:1046F000808849F24131884223D0EE48808847F2D1
:10470000897188421DD0EB48808845F2103188427B
:1047100017D0E848808845F21051884211D0E5480A
:10472000808841F6631188420BD0E248808847F2C6
:104730009671884205D0DF48808849F60601884294
:104740002CD1DD48006820F00F004FF02041C1F867
:104750001C010846D0F81C0120F47060C1F81C014F
:104760000846D0F81C0140F00400C1F81C01D148F3
:10477000808847F28971884208D1CF48006840F4A8
:1047800080604FF02041C1F81C0107E0CA48006872
:1047900040F480604FF02041C1F81C01C548818879
:1047A000C6A0FBF7CFFEC348808849F2413188425A
:1047B0007ED1CF2002F080FF002002F071FFC120E7
:1047C00002F06EFF302002F06BFFED2002F074FF6C
:1047D000642002F065FF032002F062FF122002F065
:1047E0005FFF812002F05CFFE82002F065FF85207A
:1047F00002F056FF102002F053FF7A2002F050FF23
:10480000CB2002F059FF392002F04AFF2C2002F0A1
:1048100047FF002002F044FF342002F041FF022055
:1048200002F03EFFF72002F047FF202002F038FFA1
:10483000EA2002F041FF002002F032FF002002F0E7
:104840002FFFC02002F038FF1B2002F029FFC120FB
:1048500002F032FF012002F023FFC52002F02CFFFE
:10486000302002F01DFF302002F01AFFC72002F0B6
:1048700023FFB72002F014FF362002F01DFF48206E
:1048800002F00EFF3A2002F017FF552002F008FF59
:10489000B12002F011FF002002F002FF1A2002F006
:1048A000FFFEB62002F008FF0A2002F0F9FE00E049
:1048B00097E0A22002F0F4FEF22002F0FDFE0020BC
:1048C00002F0EEFE262002F0F7FE012002F0E8FEE4
:1048D000E02002F0F1FE0F2002F0E2FE2A2002F0BA
:1048E000DFFE282002F0DCFE082002F0D9FE0E20B8
:1048F00002F0D6FE082002F0D3FE542002F0D0FED3
:10490000A92002F0CDFE432002F0CAFE0A2002F0E8
:10491000C7FE0F2002F0C4FE002002F0C1FE0020FE
:1049200002F0BEFE002002F0BBFE002002F0B8FE46
:10493000E12002F0C1FE002002F0B2FE152002F0DC
:10494000AFFE172002F0ACFE072002F0A9FE1120F6
:1049500002F0A6FE062002F0A3FE2B2002F0A0FE2D
:10496000562002F09DFE3C2002F09AFE052002F047
:1049700097FE102002F094FE0F2002F091FE3F20DF
:1049800002F08EFE3F2002F08BFE0F2002F088FE28
:104990002B2002F091FE002002F082FE002002F0A7
:1049A0007FFE012002F07CFE3F2002F079FE2A20EB
:1049B00002F082FE002002F073FE002002F070FE82
:1049C000002002F06DFEEF2002F06AFE112002F0DE
:1049D00073FE78200BF020FC292002F06DFE02F01F
:1049E00047BB3448808847F28971884261D11120E1
:1049F00002F062FE78200BF00FFC362002F05CFE25
:104A0000002002F04DFE3A2002F056FE052002F092
:104A100047FEB22002F050FE0C2002F041FE0C20B6
:104A200002F03EFE002002F03BFE332002F038FE92
:104A3000332002F035FEB72002F03EFE352002F0B2
:104A40002FFEBB2002F038FE322002F029FEC020EB
:104A500002F032FE0C2002F023FEC22002F02CFEF7
:104A6000012002F01DFEC32002F026FE102002F0FD
:104A700017FEC42002F020FE202002F011FEC62006
:104A800002F01AFE0F2002F00BFED02002F014FEFE
:104A9000A42002F005FEA12002F002FEE02002F0B8
:104AA0000BFED02002F0FCFD002002F0F9FD0220F8
:104AB0000CE07DE0520500201C0100A0204C434486
:104AC0002049443A25780D0A0000000002F0E8FD74
:104AD000072002F0E5FD0A2002F0E2FD282002F0A6
:104AE000DFFD322002F0DCFD442002F0D9FD42203F
:104AF00002F0D6FD062002F0D3FD0E2002F0D0FD1C
:104B0000122002F0CDFD142002F0CAFD172002F0A1
:104B1000C7FDE12002F0D0FDD02002F0C1FD002051
:104B200002F0BEFD022002F0BBFD072002F0B8FD3E
:104B30000A2002F0B5FD282002F0B2FD312002F07B
:104B4000AFFD542002F0ACFD472002F0A9FD0E207D
:104B500002F0A6FD1C2002F0A3FD172002F0A0FD2C
:104B60001B2002F09DFD1E2002F09AFD2A2002F07B
:104B7000A3FD002002F094FD002002F091FD002032
:104B800002F08EFDEF2002F08BFD2B2002F094FD51
:104B9000002002F085FD002002F082FD012002F0DD
:104BA0007FFD3F2002F07CFD292002F085FD16E705
:104BB000FE48808845F21031884240F07C87ED2025
:104BC00002F07AFD012002F06BFDFE2002F068FD8C
:104BD000EE2002F071FDDE2002F062FD212002F0E5
:104BE0005FFDF12002F068FD012002F059FDDF2099
:104BF00002F062FD102002F053FDC42002F05CFDC3
:104C00008F2002F04DFDC62002F056FD002002F07C
:104C100047FDE22002F044FDE22002F041FDE220E7
:104C200002F03EFDBF2002F047FDAA2002F038FD51
:104C3000B02002F041FD0D2002F032FD002002F014
:104C40002FFD0D2002F02CFD002002F029FD112087
:104C500002F026FD002002F023FD192002F020FDC5
:104C6000002002F01DFD212002F01AFD002002F0BC
:104C700017FD2D2002F014FD002002F011FD3D2053
:104C800002F00EFD002002F00BFD5D2002F008FD99
:104C9000002002F005FD5D2002F002FD002002F080
:104CA000FFFCB12002F008FD802002F0F9FC00209A
:104CB00002F0F6FC8B2002F0F3FC002002F0F0FC86
:104CC000962002F0EDFC002002F0EAFCB22002F097
:104CD000F3FC002002F0E4FC002002F0E1FC0220E2
:104CE00002F0DEFC002002F0DBFC032002F0D8FC26
:104CF000002002F0D5FCB32002F0DEFC002002F020
:104D0000CFFC002002F0CCFC002002F0C9FC002007
:104D100002F0C6FC002002F0C3FC002002F0C0FC40
:104D2000002002F0BDFC002002F0BAFC002002F0DE
:104D3000B7FC002002F0B4FC002002F0B1FC00201F
:104D400002F0AEFC002002F0ABFC002002F0A8FC58
:104D5000002002F0A5FC002002F0A2FC002002F0DE
:104D60009FFC002002F09CFC002002F099FC002037
:104D700002F096FC002002F093FC002002F090FC70
:104D8000002002F08DFC002002F08AFCB42002F02A
:104D900093FC8B2002F084FC002002F081FC962022
:104DA00002F07EFC002002F07BFCA12002F078FCE7
:104DB000002002F075FCB52002F07EFC022002F01B
:104DC0006FFC002002F06CFC032002F069FC002064
:104DD00002F066FC042002F063FC002002F060FC9C
:104DE000B62002F069FC002002F05AFC002002F01C
:104DF00057FCB72002F060FC002002F051FC0020BC
:104E000002F04EFC3F2002F04BFC002002F048FC78
:104E10005E2002F045FC002002F042FC642002F01B
:104E20003FFC002002F03CFC8C2002F039FC00200A
:104E300002F036FCAC2002F033FC002002F030FC23
:104E4000DC2002F02DFC002002F02AFC702002F091
:104E500027FC002002F024FC902002F021FC00201E
:104E600002F01EFCEB2002F01BFC002002F018FCFC
:104E7000DC2002F015FC002002F012FCB82002F049
:104E80001BFC002002F00CFC002002F009FC0020BA
:104E900002F006FC002002F003FC002002F000FCFF
:104EA000002002F0FDFB002002F0FAFB002002F0DF
:104EB000F7FBBA2002F000FC242002F0F1FB0020F6
:104EC00002F0EEFB002002F0EBFB002002F0E8FB1A
:104ED000C12002F0F1FB202002F0E2FB002002F0F2
:104EE000DFFB542002F0DCFB002002F0D9FBFF20A6
:104EF00002F0D6FB002002F0D3FBC22002F0DCFB64
:104F00000A2002F0CDFB002002F0CAFB042002F0D0
:104F1000C7FB002002F0C4FBC32002F0CDFB3C2005
:104F200002F0BEFB002002F0BBFB3A2002F0B8FB0F
:104F3000002002F0B5FB392002F0B2FB002002F0A5
:104F4000AFFB372002F0ACFB002002F0A9FB3C20B5
:104F500002F0A6FB002002F0A3FB362002F0A0FB2B
:104F6000002002F09DFB322002F09AFB002002F0AC
:104F700097FB2F2002F094FB002002F091FB2C20E5
:104F800002F08EFB002002F08BFB292002F088FB50
:104F9000002002F085FB262002F082FB002002F0B8
:104FA0007FFB242002F07CFB002001E05205002062
:104FB00002F076FB242002F073FB002002F070FB6D
:104FC000232002F06DFB002002F06AFB3C2002F07F
:104FD00067FB002002F064FB362002F061FB00203A
:104FE00002F05EFB322002F05BFB002002F058FB77
:104FF0002F2002F055FB002002F052FB2C2002F083
:105000004FFB002002F04CFB292002F049FB00205E
:1050100002F046FB262002F043FB002002F040FB9A
:10502000242002F03DFB002002F03AFB242002F095
:1050300037FB002002F034FB232002F031FB00207C
:1050400002F02EFBC42002F037FB622002F028FBA6
:10505000002002F025FB052002F022FB002002F0D8
:105060001FFB842002F01CFB002002F019FBF02043
:1050700002F016FB002002F013FB182002F010FBD8
:10508000002002F00DFBA42002F00AFB002002F039
:1050900007FB182002F004FB002002F001FB502067
:1050A00002F0FEFA002002F0FBFA0C2002F0F8FAFF
:1050B000002002F0F5FA172002F0F2FA002002F0C8
:1050C000EFFA952002F0ECFA002002F0E9FAF32062
:1050D00002F0E6FA002002F0E3FAE62002F0E0FA3D
:1050E000002002F0DDFAC52002F0E6FA322002F0DC
:1050F000D7FA002002F0D4FA442002F0D1FA0020BE
:1051000002F0CEFA652002F0CBFA002002F0C8FAD5
:10511000762002F0C5FA002002F0C2FA882002F0E0
:10512000BFFA002002F0BCFAC62002F0C5FA202027
:1051300002F0B6FA002002F0B3FA172002F0B0FA3B
:10514000002002F0ADFA012002F0AAFA002002F0DD
:10515000A7FAC72002F0B0FA002002F0A1FA00205E
:1051600002F09EFA002002F09BFA002002F098FA6A
:10517000C82002F0A1FA002002F092FA002002F00A
:105180008FFA002002F08CFA002002F089FAC92080
:1051900002F092FA002002F083FA002002F080FA76
:1051A000002002F07DFA002002F07AFA002002F0DE
:1051B00077FA002002F074FA002002F071FA002061
:1051C00002F06EFA002002F06BFA002002F068FA9A
:1051D000002002F065FA002002F062FA002002F0DE
:1051E0005FFA002002F05CFA002002F059FA002079
:1051F00002F056FAE02002F05FFA162002F050FAB0
:10520000002002F04DFA1C2002F04AFA002002F0C1
:1052100047FA212002F044FA002002F041FA362039
:1052200002F03EFA002002F03BFA462002F038FA83
:10523000002002F035FA522002F032FA002002F08B
:105240002FFA642002F02CFA002002F029FA7A20CA
:1052500002F026FA002002F023FA8B2002F020FA56
:10526000002002F01DFA992002F01AFA002002F044
:1052700017FAA82002F014FA002002F011FAB9205F
:1052800002F00EFA002002F00BFAC42002F008FA35
:10529000002002F005FACA2002F002FA002002F013
:1052A000FFF9D22002F0FCF9002002F0F9F9D92030
:1052B00002F0F6F9002002F0F3F9E02002F0F0F934
:1052C000002002F0EDF9F32002F0EAF9002002F0EC
:1052D000E7F9E12002F0F0F9162002F0E1F90020F0
:1052E00002F0DEF91C2002F0DBF9002002F0D8F910
:1052F000222002F0D5F9002002F0D2F9362002F087
:10530000CFF9002002F0CCF9452002F0C9F90020C5
:1053100002F0C6F9522002F0C3F9002002F0C0F9F1
:10532000642002F0BDF9002002F0BAF97A2002F000
:10533000B7F9002002F0B4F98B2002F0B1F9002097
:1053400002F0AEF9992002F0ABF9002002F0A8F9C2
:10535000A82002F0A5F9002002F0A2F9B92002F07D
:105360009FF9002002F09CF9C42002F099F9002076
:1053700002F096F9CA2002F093F9002002F090F9A9
:10538000D22002F08DF9002002F08AF9D82002F034
:1053900087F9002002F084F9E02002F081F9002072
:1053A00002F07EF9F32002F07BF9002002F078F998
:1053B000E22002F081F9052002F072F9002002F0EB
:1053C0006FF90B2002F06CF9002002F069F91B2044
:1053D00002F066F9002002F063F9342002F060F96F
:1053E000002002F05DF9442002F05AF9002002F09A
:1053F00057F94F2002F054F9002002F051F96120D2
:1054000002F04EF9002002F04BF9792002F048F941
:10541000002002F045F9882002F042F9002002F055
:105420003FF9972002F03CF9002002F039F9A6205C
:1054300002F036F9002002F033F9B72002F030F91B
:10544000002002F02DF9C22002F02AF9002002F01B
:1054500027F9C72002F024F9002002F021F9D12019
:1054600002F01EF9002002F01BF9D62002F018F914
:10547000002002F015F9DD2002F012F9002002F000
:105480000FF9F32002F00CF9002002F009F9E320F3
:1054900002F012F9052002F003F9002002F000F9F1
:1054A0000A2002F0FDF8002002F0FAF81C2002F0B9
:1054B000F7F8002002F0F4F8332002F0F1F80020B1
:1054C00002F0EEF8442002F0EBF8002002F0E8F8D9
:1054D000502002F0E5F8002002F0E2F8622002F02D
:1054E000DFF8002002F0DCF8782002F0D9F8002084
:1054F00002F0D6F8882002F0D3F8002002F0D0F8AD
:10550000972002F0CDF8002002F0CAF8A62002F0A1
:10551000C7F8002002F0C4F8B72002F0C1F800205C
:1055200002F0BEF8C22002F0BBF8002002F0B8F88A
:10553000C72002F0B5F8002002F0B2F8D12002F046
:10554000AFF8002002F0ACF8D52002F0A9F8002056
:1055500002F0A6F8DD2002F0A3F8002002F0A0F887
:10556000F32002F09DF8002002F09AF8E42002F007
:10557000A3F8012002F094F8002002F091F8012035
:1055800002F08EF8002002F08BF8022002F088F87A
:10559000002002F085F82A2002F082F8002002F0B4
:1055A0007FF83C2002F07CF8002002F079F84B20D4
:1055B00002F076F8002002F073F85D2002F070F837
:1055C000002002F06DF8742002F06AF8002002F06A
:1055D00067F8842002F064F8002002F061F893205C
:1055E00002F05EF8002002F05BF8A22002F058F80A
:1055F000002002F055F8B32002F052F8002002F02B
:105600004FF8BE2002F04CF8002002F049F8C42008
:1056100002F046F8002002F043F8CD2002F040F8F6
:10562000002002F03DF8D32002F03AF8002002F00A
:1056300037F8DD2002F034F8002002F031F8F320D2
:1056400002F02EF8002002F02BF8E52002F034F8EA
:10565000002002F025F8002002F022F8002002F0DD
:105660001FF8002002F01CF8022002F019F80020B8
:1056700002F016F8292002F013F8002002F010F8CA
:105680003C2002F00DF8002002F00AF84B2002F056
:1056900007F8002002F004F85D2002F001F8002075
:1056A00001F0FEFF742001F0FBFF002001F0F8FF85
:1056B000842001F0F5FF002001F0F2FF932001F0BB
:1056C000EFFF002001F0ECFFA22001F0E9FF002035
:1056D00001F0E6FFB32001F0E3FF002001F0E0FF5E
:1056E000BE2001F0DDFF002001F0DAFFC42001F050
:1056F000D7FF002001F0D4FFCD2001F0D1FF002022
:1057000001F0CEFFD32001F0CBFF002001F0C8FF55
:10571000DC2001F0C5FF002001F0C2FFF32001F002
:10572000BFFF002001F0BCFFE62001F0C5FF112003
:1057300001F0B6FF002001F0B3FF342001F0B0FF0C
:10574000002001F0ADFF562001F0AAFF002001F07B
:10575000A7FF762001F0A4FF002001F0A1FF772031
:1057600001F09EFF002001F09BFF662001F098FFF2
:10577000002001F095FF882001F092FF002001F049
:105780008FFF992001F08CFF002001F089FFBB20E2
:1057900001F086FF002001F083FF992001F080FFD7
:1057A000002001F07DFF662001F07AFF002001F06B
:1057B00077FF552001F074FF002001F071FF5520A4
:1057C00001F06EFF002001F06BFF452001F068FF43
:1057D000002001F065FF432001F062FF002001F08E
:1057E0005FFF442001F05CFF002001F059FFE7203B
:1057F00001F062FF322001F053FF002001F050FF62
:10580000552001F04DFF002001F04AFF762001F005
:1058100047FF002001F044FF662001F041FF002017
:1058200001F03EFF672001F03BFF002001F038FF50
:10583000672001F035FF002001F032FF872001F0E2
:105840002FFF002001F02CFF992001F029FF0020FC
:1058500001F026FFBB2001F023FF002001F020FF14
:10586000992001F01DFF002001F01AFF772001F0C0
:1058700017FF002001F014FF442001F011FF002069
:1058800001F00EFF562001F00BFF002001F008FF91
:10589000232001F005FF002001F002FF332001F07A
:1058A000FFFE002001F0FCFE452001F0F9FE002083
:1058B00001F0F6FEE82001F0FFFE002001F0F0FE0E
:1058C000002001F0EDFE992001F0EAFE002001F039
:1058D000E7FE872001F0E4FE002001F0E1FE8820D1
:1058E00001F0DEFE002001F0DBFE772001F0D8FEA3
:1058F000002001F0D5FE662001F0D2FE002001F06C
:10590000CFFE882001F0CCFE002001F0C9FEAA20C5
:1059100001F0C6FE002001F0C3FEBB2001F0C0FE76
:10592000002001F0BDFE992001F0BAFE002001F038
:10593000B7FE662001F0B4FE002001F0B1FE552054
:1059400001F0AEFE002001F0ABFE552001F0A8FEF4
:10595000002001F0A5FE442001F0A2FE002001F08D
:105960009FFE442001F09CFE002001F099FE55208E
:1059700001F096FE002001F093FEE92001F09CFE6C
:10598000AA2001F08DFE002001F08AFE002001F027
:1059900087FE002001F084FE002001F08DFEAA2089
:1059A00001F07EFECF2001F087FE002001F078FE9E
:1059B000002001F075FE002001F072FE002001F0D1
:1059C0006FFE002001F06CFE002001F069FE002057
:1059D00001F066FE002001F063FE002001F060FE91
:1059E000002001F05DFE002001F05AFE002001F0D1
:1059F00057FE002001F054FE002001F051FE00206F
:105A000001F04EFE002001F04BFE002001F048FEA8
:105A1000F02001F051FE002001F042FE502001F084
:105A20003FFE002001F03CFE002001F039FE002086
:105A300001F036FEF32001F03FFE002001F030FEC1
:105A4000F92001F039FE062001F02AFE102001F0B5
:105A500027FE292001F024FE002001F021FE3A203B
:105A600001F02AFE552001F01BFE112001F024FE5A
:105A700064200AF0D1FB292001F01EFE352001F040
:105A80001BFE002001F00CFE512001F015FEFF204E
:105A900001F006FE532001F00FFE2C2001F000FE65
:105AA000552001F009FE822001F0FAFD2C2001F0C2
:105AB00003FE01F0DDBAFE48808845F210518842AD
:105AC0007ED155214FF4704001F00CFEAA214FF217
:105AD000010001F007FE52214FF2020001F002FE28
